:1000000012C02CC02BC02AC029C028C027C026C0BF
:1000100025C024C023C022C021C020C01FC01EC0D4
:100020001DC01CC01BC011241FBECFE5D4E0DEBF25
:10003000CDBF10E0A0E6B0E0EAE7F5E002C0059031
:100040000D92A036B107D9F710E0A0E6B0E001C0EC
:100050001D92A036B107E1F78CD08DC2D1CFDF93CE
:10006000CF93CDB7DEB72E970FB6F894DEBF0FBE95
:10007000CDBFE7E3F0E08FEF8083A8E3B0E0E8E3F3
:10008000F0E0808180958C9380E090E0A8ECB2E471
:100090008B879C87AD87BE8720E030E04AE753E43A
:1000A0006B857C858D859E85DBD1DC01CB018F83C3
:1000B0009887A987BA8720E030E040E85FE36F8146
:1000C000788589859A854BD188232CF481E090E04E
:1000D0009E838D833BC020E03FEF4FE757E46F8165
:1000E000788589859A85B8D118163CF520E030E0EE
:1000F00040E251E46B857C858D859E85B1D1DC0124
:10010000CB01BC01CD012FD1DC01CB019E838D83BE
:100110000FC089E190E09C838B838B819C81019748
:10012000F1F79C838B838D819E8101979E838D83C4
:100130008D819E81009769F713C06F8178858985CD
:100140009A8511D1DC01CB019E838D838D819E81A7
:100150009A83898389819A810197F1F79A838983A8
:100160002E960FB6F894DEBF0FBECDBFCF91DF91B4
:100170000895DF93CF93CDB7DEB76C970FB6F894A1
:10018000DEBF0FBECDBF6BDF6ACFE8E3F0E08FEFDD
:10019000808380E090E0A8ECB2E4898F9A8FAB8FE7
:1001A000BC8F20E030E04AE753E4698D7A8D8B8D77
:1001B0009C8D56D1DC01CB018D8B9E8BAF8BB88F84
:1001C00020E030E040E85FE36D897E898F89988D7B
:1001D000C6D088232CF481E090E09C8B8B8B3BC0B5
:1001E00020E03FEF4FE757E46D897E898F89988D36
:1001F00033D118163CF520E030E040E251E4698D3F
:100200007A8D8B8D9C8D2CD1DC01CB01BC01CD0175
:10021000AAD0DC01CB019C8B8B8B0FC089E190E0D5
:100220009A8B898B89899A890197F1F79A8B898BA7
:100230008B899C8901979C8B8B8B8B899C890097E0
:1002400069F713C06D897E898F89988D8CD0DC0108
:10025000CB019C8B8B8B8B899C89988B8F878F850F
:1002600098890197F1F7988B8F87E8E3F0E0108287
:1002700080E090E0A8ECB2E48B879C87AD87BE87D6
:1002800020E030E04AE753E46B857C858D859E85D0
:10029000E7D0DC01CB018F839887A987BA8720E05C
:1002A00030E040E85FE36F81788589859A8557D093
:1002B00088232CF481E090E09E838D833BC020E076
:1002C0003FEF4FE757E46F81788589859A85C4D0E1
:1002D00018163CF520E030E040E251E46B857C8567
:1002E0008D859E85BDD0DC01CB01BC01CD013BD00D
:1002F000DC01CB019E838D830FC089E190E09C835C
:100300008B838B819C810197F1F79C838B838D81FB
:100310009E8101979E838D838D819E81009769F7D1
:1003200013C06F81788589859A851DD0DC01CB014A
:100330009E838D838D819E819A83898389819A8111
:100340000197F1F79A83898380E090E06C960FB66D
:10035000F894DEBF0FBECDBFCF91DF9108952FD0AF
:1003600008F481E0089557D088F09F5790F0B92F96
:100370009927B751A0F0D1F0660F771F881F991FFA
:100380001AF0BA95C9F712C0B13081F05ED0B1E071
:1003900008955BC0672F782F8827B85F39F0B93F81
:1003A000CCF3869577956795B395D9F73EF49095FC
:1003B0008095709561957F4F8F4F9F4F0895990F4E
:1003C0000008550FAA0BE0E8FEEF16161706E8071F
:1003D000F907C0F012161306E407F50798F0621B40
:1003E000730B840B950B39F40A2661F0232B242B15
:1003F000252B21F408950A2609F4A140A6958FEF34
:10040000811D811D089557FD9058440F551F59F0C7
:100410005F3F71F04795880F97FB991F61F09F3FF1
:1004200079F087950895121613061406551FF2CF1A
:100430004695F1DF08C0161617061806991FF1CF6A
:1004400086957105610508940895E894BB27662791
:100450007727CB0197F90895B2DF08F48FEF08955D
:100460000BD078C069D028F06ED018F0952309F031
:100470005AC05FC01124EACFC6DFA0F3959FD1F325
:10048000950F50E0551F629FF001729FBB27F00D42
:10049000B11D639FAA27F00DB11DAA1F649F662797
:1004A000B00DA11D661F829F2227B00DA11D621FE6
:1004B000739FB00DA11D621F839FA00D611D221FA0
:1004C000749F3327A00D611D231F849F600D211D84
:1004D000822F762F6A2F11249F5750408AF0E1F027
:1004E00088234AF0EE0FFF1FBB1F661F771F881F70
:1004F00091505040A9F79E3F510570F014C0A6CF0F
:100500005F3FECF3983EDCF3869577956795B7955A
:10051000F795E7959F5FC1F7FE2B880F911D969584
:10052000879597F9089597F99F6780E870E060E0F4
:1005300008959FEF80EC089500240A94161617067C
:1005400018060906089500240A94121613061406C4
:1005500005060895092E0394000C11F4882352F027
:10056000BB0F40F4BF2B11F460FF04C06F5F7F4FDF
:0A0570008F4F9F4F0895F894FFCFBE
:00000001FF
